:0300000002015C9E
:0C015C00787FE4F6D8FD75814C0201A309
:070003004359542053420051
:1003AF007F0A7E00120026AA06A9077542018A431A
:1003BF00894412049D12055A7BFF7A007903E4FDEC
:1003CF00FF1200C2D2A17FC87E00120453C2A17FC8
:0803DF00C87E0012045380ECFB
:1002A70020301200000000000000000000000100E4
:1002B7000000010000000000010001000100000033
:1002C7000000010000000100010001000000010022
:0F02D7000100010A083F065B4F666D7D077F6FD0
:100337001FEF75F006A42412F8E6FA08E64A24FF30
:1003470092A4EF75F006A42414F8E6FA08E64A2406
:10035700FF92A3EF75F006A42416F8E6FE08E64E12
:0C03670024FF92A274082DF8E6F5802215
:10025600E4F54C20B02312044F30B0FD12044FE5F4
:100266004CB40803E4F54CAF4C054C7401A80708E0
:100276008002C333D8FCF4F5A020B1D712044F3066
:10028600B1FD12044FE54CB4FF03754C07AF4C1596
:100296004C7401A807088002C333D8FCF4F5A0808B
:0102A600B2A5
:04044F007F147E0098
:10045300D3EF940AEE940040077C007D0A12020158
:100463007D6C7C91EF1FAA0670011E4A6006DCFEBC
:04047300DDFC80F03C
:010477002262
:1004EC00EF1FAC0670011E4C600D0000007D0B7CF4
:0704FC00BEDCFEDDFC80E91F
:0105030022D5
:1005040075A0FE7FE87E0312045375A0FF7FE87E8A
:060514000312045380EA0B
:10053000E4FB20B0FD12044F30B0FD12044F0BEB72
:05054000F4F5A080EDC0
:0F057E0030B10B12044F20B1FD12044FB2A02276
:0402E600024A0001C7
:10049D0053878053890F438920439850D2AFD2ACF4
:0B04AD00758DFD758CFDC28FD28E2274
:030023000204D301
:0704D300C0D075D000C00786
:0D04DA00C298AF998F008F993099FDC2999B
:0504E700D007D0D03267
:10056E00438901758CFC758A18D28CD2AFD2A92220
:03000B0002041CD0
:09041C00C0E0C0D075D000C0069C
:10042500758CFC758A18054BE54BAE4A7002054A7A
:1004350014D394E8EE648094834008754A00754BA4
:0304450000B2A062
:07044800D006D0D0D0E03255
:07058D00D2AFD2AAD28A22EC
:030013000202F6F0
:1002F600C0E0C0F0C083C082C0D075D000C000C0CE
:1003060001C002C003C004C005C006C0077F147E3A
:10031600001204ECB2A0D007D006D005D004D0035A
:10032600D002D001D000D0D0D082D083D0F0D0E09F
:010336003294
:10054500758900438920D2AFD2AB758B9B758D9B86
:05055500C28FD28E22CE
:0B0016004552524F522044415441001B
:1004B800C2A6C2A58F80C2A77F017E001204ECD21B
:0B04C800A77F017E001204ECC2A722F7
:0A047800AB46AA47A9481201E8FFAD
:10048200D2A6C2A58F80C2A77F017E001204ECD241
:0B049200A77F017E001204ECC2A7222D
:10055A007F381204B87F0C1204B87F061204B87FE1
:04056A00010204B8CE
:05000E007F010204B8AF
:0800C2008F458B468A478948EF
:1000CA00E4F549E545D3940F5005ED9401400D75CB
:1000DA0046FF754700754816E4FDF545ED7039ABE6
:1000EA0046AA47A9481201E86067C374109545FFFC
:1000FA00E549C39FE54950062480254580042545E6
:10010A0024B0FF1204B812047874012548F548E4B3
:10011A003547F547054980C7AB46AA47A9481201A2
:10012A00E8602EC374109545FFE549C39FE5495021
:10013A000624C02545800425452470FF1204B81200
:10014A00047874012548F548E43547F547054980A0
:01015A00C7DD
:01015B002281
:0B051A00EBFFC374649FFFE49400FE3D
:0B052500EF1FAC0670011E4C70F622A8
:1003E700E4FBE4FDC2A0EBFF7E00120525D2A012BC
:1003F700051A0DBD28EE0BBB64E8E4FBE4FDC2A0C3
:1004070012051AD2A0EBFF7E001205250DBD28EEBE
:040417000BBB64E8CF
:01041B0022BE
:01000A0022D3
:100168000203AFE493A3F8E493A34003F68001F2FB
:1001780008DFF48029E493A3F85407240CC8C33398
:10018800C4540F4420C8834004F456800146F6DF67
:10019800E4800B01020408102040809002A7E47E4E
:1001A800019360BCA3FF543F30E509541FFEE4935C
:1001B800A360010ECF54C025E060A840B8E493A323
:1001C800FAE493A3F8E493A3C8C582C8CAC583CA4E
:1001D800F0A3C8C582C8CAC583CADFE9DEE780BE06
:0102EA000013
:1001E800BB010689828A83E0225002E722BBFE0215
:0901F800E32289828A83E4932248
:10020100BC000BBE0029EF8DF084FFADF022E4CCE1
:10021100F875F008EF2FFFEE33FEEC33FCEE9DECAA
:10022100984005FCEE9DFE0FD5F0E9E4CEFD22EDF0
:10023100F8F5F0EE8420D21CFEADF075F008EF2F3A
:10024100FFED33FD4007985006D5F0F222C398FD2B
:050251000FD5F0EA22C8
:100026008E458F467E007F008F828E83E0FCA3E0A4
:10003600FD4C7003FEFF228D828C83A3A3E0FAA3FE
:10004600E0FBC39546EA95455008CEECCECFEDCF02
:1000560080D6C3EB9546F548EA9545F547C3E5488E
:100066009410E547940050198D828C83E0FBA3E041
:100076008F828E83CBF0A3EBF0ED2404FFE43CFEED
:100086002274FC2548F54874FF3547F5478D828C68
:1000960083A3A3F0A3E548F0ED2404FFE43CFEEFC0
:1000A6002548FFEE3547FE8F82F583A3A3E545F08D
:0C00B600A3E546F0EF2404FFE43EFE2228
:0B02EB004800000000000000000000C0
:10037300EF4E7008FE7F01ED1D70011C900000EE32
:10038300F0A3EFF0A3ECF0A3EDF0900000E0FEA3E8
:10039300E0FFF5828E83E4F0A3F0ED24FCFDEC3462
:0C03A300FF8F828E83A3A3F0A3EDF02255
:00000001FF
